:100000000C942A000C9447000C9447000C94470071
:100010000C9447000C9447000C94FA170C9447007A
:100020000C9447000C9447000C94B80E0C94E50E09
:100030000C9447000C9447000C9447000C94470024
:100040000C9447000C9447000C9447000C94470014
:100050000C94470011241FBECFE5D8E0DEBFCDBF12
:1000600010E0A0E6B0E0E8ECF1E302C005900D92EC
:10007000AA3EB107D9F710E0AAEEB0E001C01D9288
:10008000A73FB107E1F70E94CD100C94E2180C9441
:100090000000EF92FF920F931F937B018C0120E0F1
:1000A00030E040E05FE40E94F50388238CF0C80153
:1000B000B70120E030E040E05FE40E94C1010E940F
:1000C00055049B01AC01205030404040504806C0D0
:1000D000C801B7010E9455049B01AC01B901CA01D6
:1000E0001F910F91FF90EF900895A0E0B0E0EBE733
:1000F000F0E00C94AB18DC012B01FA019C919230DA
:1001000008F439C1EB018881823008F433C194309E
:1001100069F4843009F02FC111969C91119789815F
:10012000981709F428C1AFEDB0E025C1843009F477
:1001300021C18230A9F4923009F01DC19A01AD01AC
:1001400088E0EA010990AE01E90109929E0181501F
:10015000C1F7E201898111969C918923818308C1AD
:10016000923009F407C112962D903C901397EB0141
:100170008A819B811496AD90BD90CD90DC901797AD
:10018000EC80FD800E811F819101281B390BB90184
:1001900037FF04C066277727621B730B6032710537
:1001A0000CF061C0121613066CF537014801062EDB
:1001B00004C096948794779467940A94D2F721E0C8
:1001C00030E040E050E004C0220F331F441F551FB1
:1001D0006A95D2F721503040404050402E213F21B7
:1001E00040235123211531054105510521F021E01E
:1001F00030E040E050E079018A01E628F72808293C
:1002000019293CC0232BD1F1260E371E350146019A
:10021000062E04C096948794779467940A94D2F734
:1002200021E030E040E050E004C0220F331F441FC3
:10023000551F6A95D2F721503040404050402A2146
:100240003B214C215D21211531054105510521F04E
:1002500021E030E040E050E059016A01A628B728CB
:10026000C828D9280BC0821593052CF01C01AA249C
:10027000BB24650103C0EE24FF24870111969C91E5
:10028000D20111968C91981709F445C0992339F041
:10029000A80197012A193B094C095D0906C0A6016E
:1002A00095012E193F09400B510B57FD08C01182D3
:1002B0003382228224833583468357831DC081E0A5
:1002C00081833382228288279927DC01821B930B4A
:1002D000A40BB50B84839583A683B7830DC0220F2F
:1002E000331F441F551F24833583468357838281E0
:1002F000938101979383828324813581468157813D
:10030000DA01C9010197A109B1098F5F9F4FAF4F72
:10031000BF4328F30BC0918333822282EA0CFB1C7B
:100320000C1D1D1DE482F5820683178383E0808304
:10033000248135814681578157FF1AC0C901AA27F8
:1003400097FDA095BA2F81709070A070B0705695EF
:10035000479537952795822B932BA42BB52B848318
:100360009583A683B7838281938101969383828349
:10037000DF0101C0D201CD01CDB7DEB7E2E10C94BF
:10038000C718A0E2B0E0E7ECF1E00C94B71869837D
:100390007A838B839C832D833E834F835887E9E048
:1003A000EE2EF12CEC0EFD1ECE010196B7010E943F
:1003B0007E058E010F5E1F4FCE010596B8010E948B
:1003C0007E058A8991E089278A8BC701B801AE0131
:1003D000475E5F4F0E9475000E94A904A096E6E068
:1003E0000C94D318A0E2B0E0E8EFF1E00C94B71859
:1003F00069837A838B839C832D833E834F835887C5
:10040000F9E0EF2EF12CEC0EFD1ECE010196B701A6
:100410000E947E058E010F5E1F4FCE010596B8012A
:100420000E947E05C701B801AE01475E5F4F0E9482
:1004300075000E94A904A096E6E00C94D318A0E2EF
:10044000B0E0E5E2F2E00C94AB1869837A838B8329
:100450009C832D833E834F835887CE010196BE0136
:10046000675F7F4F0E947E05CE010596BE016F5EDD
:100470007F4F0E947E059985923088F0898982306D
:10048000C8F0943019F4823051F404C0843029F457
:10049000923081F48FED90E0C6C0923049F420E0B4
:1004A0009A858A89981321E02A87CE010996BBC0D4
:1004B000823049F420E09A858A89981321E02A8BBA
:1004C000CE014196B0C02D843E844F8458886D88FB
:1004D0007E888F88988CEE24FF248701AA24BB2471
:1004E000650140E050E060E070E0E0E0F0E0C10174
:1004F00081709070892BE9F0E60CF71C081D191D1E
:100500009A01AB012A0D3B1D4C1D5D1D80E090E062
:10051000A0E0B0E0E614F7040805190520F481E036
:1005200090E0A0E0B0E0BA01A901480F591F6A1F8E
:100530007B1FAA0CBB1CCC1CDD1C97FE08C081E0F5
:1005400090E0A0E0B0E0A82AB92ACA2ADB2A3196B6
:10055000E032F10549F0660C771C881C991C569412
:10056000479437942794C3CFFA85EA892B893C892D
:100570008B859C85280F391F2E5F3F4F17C0CA01FE
:1005800081709070892B61F016950795F794E79428
:1005900080E090E0A0E0B0E8E82AF92A0A2B1B2BC3
:1005A00076956795579547952F5F3F4F77FDE7CF36
:1005B0000CC0440F551F661F771F17FD4160EE0CDE
:1005C000FF1C001F111F21503040403090E05907A0
:1005D00090E0690790E4790760F32B8F3C8FDB0193
:1005E000CA018F779070A070B07080349105A1051A
:1005F000B10561F447FD0AC0E114F10401051105DC
:1006000029F0405C5F4F6F4F7F4F40781A8EFE1786
:1006100011F081E08A8F4D8F5E8F6F8F78A383E01A
:10062000898FCE0149960E94A904A096E2E10C941C
:10063000C718A8E1B0E0EFE1F3E00C94B3186983C8
:100640007A838B839C832D833E834F835887B9E0C5
:10065000EB2EF12CEC0EFD1ECE010196B7010E948F
:100660007E058E010F5E1F4FCE010596B8010E94D8
:100670007E052985223008F47EC03989323010F495
:10068000B8017CC08A859A8989278A87243011F02D
:10069000223031F4231709F06EC06FED70E06EC0A8
:1006A000343039F41D861E861F86188A1C861B86E8
:1006B00004C0323021F484E08987B7015FC02B8504
:1006C0003C858B899C89281B390B3C872B87ED84C3
:1006D000FE840F851889AD88BE88CF88D88CEA142F
:1006E000FB040C051D0540F4EE0CFF1C001F111F40
:1006F000215030403C872B8720E030E040E050E044
:1007000080E090E0A0E0B0E460E070E0EA14FB0478
:100710000C051D0540F0282B392B4A2B5B2BEA18C2
:10072000FB080C091D09B695A79597958795EE0CC2
:10073000FF1C001F111F6F5F7F4F6F31710531F775
:10074000DA01C9018F779070A070B0708034910584
:10075000A105B10561F427FD0AC0E114F10401050A
:10076000110529F0205C3F4F4F4F5F4F20782D87B8
:100770003E874F87588BBE01675F7F4FCB010E943A
:10078000A9046896EAE00C94CF18A8E1B0E0EBEC7D
:10079000F3E00C94B71869837A838B839C832D8351
:1007A0003E834F83588789E0E82EF12CEC0EFD1E26
:1007B000CE010196B7010E947E058E010F5E1F4F8C
:1007C000CE010596B8010E947E058985823040F0F1
:1007D0008989823028F0C701B8010E94F60501C05E
:1007E0008FEF6896E6E00C94D318A8E1B0E0EBEF49
:1007F000F3E00C94B71869837A838B839C832D83F1
:100800003E834F83588789E0E82EF12CEC0EFD1EC5
:10081000CE010196B7010E947E058E010F5E1F4F2B
:10082000CE010596B8010E947E058985823040F090
:100830008989823028F0C701B8010E94F60501C0FD
:100840008FEF6896E6E00C94D318A8E1B0E0EBE2F5
:10085000F4E00C94B71869837A838B839C832D838F
:100860003E834F83588789E0E82EF12CEC0EFD1E65
:10087000CE010196B7010E947E058E010F5E1F4FCB
:10088000CE010596B8010E947E058985823040F030
:100890008989823028F0C701B8010E94F60501C09D
:1008A00081E06896E6E00C94D318ACE0B0E0EBE5AC
:1008B000F4E00C94BB1869837A838B839C83CE010C
:1008C0000196BE016B5F7F4F0E947E058D81823055
:1008D00061F1823050F1843021F48E81882351F10E
:1008E0002EC02F81388537FD20C06E812F31310514
:1008F0001CF06623F9F023C08EE190E0821B930B7D
:1009000029853A854B855C8504C056954795379572
:1009100027958A95D2F76623B1F05095409530958A
:1009200021953F4F4F4F5F4F0EC020E030E040E039
:1009300050E009C02FEF3FEF4FEF5FE704C020E02A
:1009400030E040E050E8B901CA012C96E2E00C9496
:10095000D718DF92EF92FF920F931F93FC01E48070
:10096000F58006811781D1808081823048F480E053
:1009700090E0A0E1B0E0E82AF92A0A2B1B2BA5C0E1
:10098000843009F49FC0823021F4EE24FF248701D3
:1009900005C0E114F1040105110519F4E0E0F0E0EF
:1009A00096C0628173819FEF623879070CF05BC05B
:1009B00022E83FEF261B370B2A3131052CF020E0CF
:1009C00030E040E050E02AC0B801A701022E04C088
:1009D00076956795579547950A94D2F781E090E010
:1009E000A0E0B0E004C0880F991FAA1FBB1F2A9582
:1009F000D2F70197A109B1098E219F21A023B1232C
:100A00000097A105B10521F081E090E0A0E0B0E001
:100A10009A01AB01282B392B4A2B5B2BDA01C90138
:100A20008F779070A070B07080349105A105B105EA
:100A300039F427FF09C0205C3F4F4F4F5F4F04C080
:100A4000215C3F4F4F4F5F4FE0E0F0E02030A0E0EF
:100A50003A07A0E04A07A0E45A0710F0E1E0F0E00E
:100A600079018A0127C06038710564F5FB01E158FE
:100A7000FF4FD801C7018F779070A070B07080349D
:100A80009105A105B10539F4E7FE0DC080E490E0C1
:100A9000A0E0B0E004C08FE390E0A0E0B0E0E80E9A
:100AA000F91E0A1F1B1F17FF05C016950795F7941F
:100AB000E794319687E016950795F794E7948A9521
:100AC000D1F705C0EE24FF248701EFEFF0E06E2F91
:100AD000679566276795902F9F77D794DD24D794E5
:100AE0008E2F8695492F462B582F5D29B701CA01B5
:100AF0001F910F91FF90EF90DF900895FC01DB01B3
:100B0000408151812281622F6F7770E0221F22275E
:100B1000221F9381892F880F822B282F30E0991F65
:100B20009927991F11969C93119721153105A9F5C5
:100B3000411551056105710511F482E037C082E865
:100B40009FEF13969C938E9312979A01AB0167E0E7
:100B5000220F331F441F551F6A95D1F783E08C93F2
:100B60000DC0220F331F441F551F12968D919C916B
:100B70001397019713969C938E931297203080E0E1
:100B8000380780E0480780E4580758F314962D93FF
:100B90003D934D935C93179708952F3F310579F45A
:100BA000411551056105710519F484E08C93089590
:100BB00064FF03C081E08C9312C01C9210C02F57B9
:100BC000304013963C932E93129783E08C9387E0EA
:100BD000440F551F661F771F8A95D1F770641496CE
:100BE0004D935D936D937C93179708951F93DC014C
:100BF000FB019C91923008F447C08081823008F458
:100C000043C0943051F411961C91843099F5818140
:100C1000682F70E0611B71093FC0843021F0923071
:100C200031F48230B9F18181882389F12DC0119688
:100C30001C9111978230F1F081811817D9F4129626
:100C40002D913C911397828193818217930794F0A1
:100C500028173907BCF014968D919D910D90BC9189
:100C6000A02D2481358146815781281739074A07ED
:100C70005B0718F4112341F00AC082179307A407F9
:100C8000B50740F4112319F061E070E005C06FEF83
:100C90007FEF02C060E070E0CB011F910895DF9309
:100CA000CF9300D000D0CDB7DEB789836A83898126
:100CB000282F30E03C832B838B819C8182309105EF
:100CC000D9F02B813C812330310534F48B819C8118
:100CD0008130910561F01EC02B813C8123303105AC
:100CE00081F08B819C818430910581F013C0EAE30F
:100CF000F0E08A8180830EC0E7E3F0E08A818083A0
:100D000009C0E4E3F0E08A81808304C0E1E3F0E01D
:100D10008A8180830F900F900F900F90CF91DF9179
:100D20000895DF93CF9300D000D0CDB7DEB789838D
:100D30006A838981282F30E03C832B838B819C81BF
:100D400082309105D9F02B813C812330310534F478
:100D50008B819C818130910561F01EC02B813C818B
:100D60002330310581F08B819C818430910581F0A5
:100D700013C0EBE3F0E08A8180830EC0E8E3F0E08B
:100D80008A81808309C0E5E3F0E08A81808304C022
:100D9000E2E3F0E08A8180830F900F900F900F9034
:100DA000CF91DF910895DF93CF93CDB7DEB727972B
:100DB0000FB6F894DEBF0FBECDBF89836A834B8325
:100DC0008B81813009F070C08981282F30E03F830A
:100DD0002E838E819F818230910551F12E813F813A
:100DE0002330310534F48E819F818130910561F08B
:100DF000D3C02E813F812330310571F18E819F81D7
:100E000084309105E9F1C8C0AAE3B0E0EAE3F0E07C
:100E10008081482F8A81282F30E081E090E0022EE7
:100E200002C0880F991F0A94E2F7842B8C93B4C0F8
:100E3000A7E3B0E0E7E3F0E08081482F8A81282F24
:100E400030E081E090E0022E02C0880F991F0A94E2
:100E5000E2F7842B8C93A0C0A4E3B0E0E4E3F0E0DD
:100E60008081482F8A81282F30E081E090E0022E97
:100E700002C0880F991F0A94E2F7842B8C938CC0D0
:100E8000A1E3B0E0E1E3F0E08081482F8A81282FE0
:100E900030E081E090E0022E02C0880F991F0A9492
:100EA000E2F7842B8C9378C08B81882309F074C07F
:100EB0008981282F30E03D832C838C819D81823075
:100EC000910561F12C813D812330310534F48C8111
:100ED0009D818130910569F05FC02C813D81233077
:100EE000310589F18C819D818430910509F440C0E0
:100EF00053C0AAE3B0E0EAE3F0E08081482F8A81A2
:100F0000282F30E081E090E0022E02C0880F991F68
:100F10000A94E2F7809584238C933EC0A7E3B0E067
:100F2000E7E3F0E08081482F8A81282F30E081E0DC
:100F300090E0022E02C0880F991F0A94E2F7809574
:100F400084238C9329C0A4E3B0E0E4E3F0E0808143
:100F5000482F8A81282F30E081E090E0022E02C0E5
:100F6000880F991F0A94E2F7809584238C9314C00C
:100F7000A1E3B0E0E1E3F0E08081482F8A81282FEF
:100F800030E081E090E0022E02C0880F991F0A94A1
:100F9000E2F7809584238C9327960FB6F894DEBFF2
:100FA0000FBECDBFCF91DF910895DF93CF93CDB723
:100FB000DEB727970FB6F894DEBF0FBECDBF89838B
:100FC0006A834B838B81813009F070C08981282F1F
:100FD00030E03F832E838E819F818230910551F1D5
:100FE0002E813F812330310534F48E819F81813001
:100FF000910561F0D3C02E813F812330310571F11D
:101000008E819F8184309105E9F1C8C0ABE3B0E0E7
:10101000EBE3F0E08081482F8A81282F30E081E0E7
:1010200090E0022E02C0880F991F0A94E2F7842BE9
:101030008C93B4C0A8E3B0E0E8E3F0E08081482FEF
:101040008A81282F30E081E090E0022E02C0880FD4
:10105000991F0A94E2F7842B8C93A0C0A5E3B0E01B
:10106000E5E3F0E08081482F8A81282F30E081E09D
:1010700090E0022E02C0880F991F0A94E2F7842B99
:101080008C938CC0A2E3B0E0E2E3F0E08081482FD3
:101090008A81282F30E081E090E0022E02C0880F84
:1010A000991F0A94E2F7842B8C9378C08B81882354
:1010B00009F074C08981282F30E03D832C838C8116
:1010C0009D818230910561F12C813D812330310574
:1010D00034F48C819D818130910569F05FC02C8151
:1010E0003D812330310589F18C819D8184309105CA
:1010F00009F440C053C0ABE3B0E0EBE3F0E0808123
:10110000482F8A81282F30E081E090E0022E02C033
:10111000880F991F0A94E2F7809584238C933EC030
:10112000A8E3B0E0E8E3F0E08081482F8A81282F2F
:1011300030E081E090E0022E02C0880F991F0A94EF
:10114000E2F7809584238C9329C0A5E3B0E0E5E322
:10115000F0E08081482F8A81282F30E081E090E004
:10116000022E02C0880F991F0A94E2F7809584230B
:101170008C9314C0A2E3B0E0E2E3F0E08081482F5A
:101180008A81282F30E081E090E0022E02C0880F93
:10119000991F0A94E2F7809584238C9327960FB6C3
:1011A000F894DEBF0FBECDBFCF91DF910895DF93DE
:1011B000CF9300D000D00F92CDB7DEB78A836B8378
:1011C0008FEF89838A81282F30E03D832C834C81E7
:1011D0005D814230510541F18C819D8183309105C3
:1011E00034F42C813D812130310561F052C04C81B5
:1011F0005D814330510551F18C819D818430910591
:10120000B9F147C0E9E3F0E08081282F30E08B811D
:10121000882F90E0A90102C0559547958A95E2F77D
:10122000CA018170898335C0E6E3F0E08081282F10
:1012300030E08B81882F90E0A90102C05595479539
:101240008A95E2F7CA018170898323C0E3E3F0E065
:101250008081282F30E08B81882F90E0A90102C087
:10126000559547958A95E2F7CA018170898311C027
:10127000E0E3F0E08081282F30E08B81882F90E040
:10128000A90102C0559547958A95E2F7CA01817078
:10129000898389810F900F900F900F900F90CF91BD
:1012A000DF910895AF92BF92CF92DF92EF92FF92BB
:1012B0000F931F93DF93CF93CDB7DEB760970FB631
:1012C000F894DEBF0FBECDBF69837A838B839C8386
:1012D0002D833E834F835887E986FA860B871C87C8
:1012E000AD86BE86CF86D88A2D853E854F855889A6
:1012F00089859A85AB85BC8579018A01E81AF90A46
:101300000A0B1B0B2D813E814F8158858D8D9E8D43
:10131000AF8DB8A1281B390B4A0B5B0BC801B70175
:101320000E9443187B018C012D813E814F8158859D
:1013300089819A81AB81BC81281B390B4A0B5B0BDD
:10134000C801B7010E948918DA01C9019C01AD01E9
:101350008D859E85AF85B889821B930BA40BB50B39
:10136000BC01CD0160960FB6F894DEBF0FBECDBFB5
:10137000CF91DF911F910F91FF90EF90DF90CF9071
:10138000BF90AF900895DF93CF93CDB7DEB7AFE5B1
:10139000B0E0EFE5F0E0808180688C93CF91DF9141
:1013A0000895DF93CF93CDB7DEB7AFE5B0E0EFE5BB
:1013B000F0E080818F778C93CF91DF910895DF9358
:1013C000CF93CDB7DEB72F970FB6F894DEBF0FBE21
:1013D000CDBF8F8783E060E041E00E94D50783E0C6
:1013E00061E040E00E94D50781E06F850E94910690
:1013F00083E062E041E00E94D50780E090E0A0E851
:10140000BFE38B879C87AD87BE876B857C858D8589
:101410009E8520E030E04AEF54E40E941F02DC0188
:10142000CB018F839887A987BA876F817885898553
:101430009A8520E030E040E85FE30E94250488239D
:101440002CF481E090E09E838D833FC06F8178858E
:1014500089859A8520E03FEF4FE757E40E94C50356
:1014600018164CF56B857C858D859E8520E030E0D7
:1014700040E251E40E941F02DC01CB01BC01CD011E
:101480000E944900DC01CB019E838D830FC088EC54
:1014900090E09C838B838B819C810197F1F79C83E7
:1014A0008B838D819E8101979E838D838D819E810B
:1014B000009769F714C06F81788589859A850E94A5
:1014C0004900DC01CB019E838D838D819E819A83AF
:1014D000898389819A810197F1F79A83898383E0CF
:1014E00062E040E00E94D5072F960FB6F894DEBF69
:1014F0000FBECDBFCF91DF910895DF93CF93CDB7CE
:10150000DEB72F970FB6F894DEBF0FBECDBF8F8723
:1015100083E060E040E00E94D50783E061E040E0C6
:101520000E94D50781E06F850E94910683E062E00A
:1015300041E00E94D50780E090E0A0E8BFE38B8700
:101540009C87AD87BE876B857C858D859E8520E0D9
:1015500030E04AEF54E40E941F02DC01CB018F838C
:101560009887A987BA876F81788589859A8520E0D1
:1015700030E040E85FE30E94250488232CF481E0FA
:1015800090E09E838D833FC06F81788589859A85A1
:1015900020E03FEF4FE757E40E94C50318164CF5D3
:1015A0006B857C858D859E8520E030E040E251E4AE
:1015B0000E941F02DC01CB01BC01CD010E94490049
:1015C000DC01CB019E838D830FC088EC90E09C836F
:1015D0008B838B819C810197F1F79C838B838D8119
:1015E0009E8101979E838D838D819E81009769F7EF
:1015F00014C06F81788589859A850E944900DC0135
:10160000CB019E838D838D819E819A83898389817D
:101610009A810197F1F79A83898383E062E040E041
:101620000E94D5072F960FB6F894DEBF0FBECDBF30
:10163000CF91DF910895DF93CF93CDB7DEB7E897D1
:101640000FB6F894DEBF0FBECDBF80E090E0A0E201
:10165000B2E48DAB9EABAFABB8AF6DA97EA98FA93D
:1016600098AD20E030E04AEF54E40E941F02DC0114
:10167000CB0189AB9AABABABBCAB69A97AA98BA9FF
:101680009CA920E030E040E85FE30E942504882325
:101690002CF481E090E098AB8FA73FC069A97AA9AC
:1016A0008BA99CA920E03FEF4FE757E40E94C503B8
:1016B00018164CF56DA97EA98FA998AD20E030E0F1
:1016C00040E251E40E941F02DC01CB01BC01CD01CC
:1016D0000E944900DC01CB0198AB8FA70FC088ECBA
:1016E00090E09EA78DA78DA59EA50197F1F79EA7D7
:1016F0008DA78FA598A9019798AB8FA78FA598A9BB
:10170000009769F714C069A97AA98BA99CA90E94BE
:101710004900DC01CB0198AB8FA78FA598A99CA7A6
:101720008BA78BA59CA50197F1F79CA78BA788E3B6
:101730000E947D0A80E090E0A0E8BFE38FA398A715
:10174000A9A7BAA76FA178A589A59AA520E030E03E
:101750004AEF54E40E941F02DC01CB018BA39CA33F
:10176000ADA3BEA36BA17CA18DA19EA120E030E022
:1017700040E85FE30E94250488232CF481E090E098
:101780009AA389A33FC06BA17CA18DA19EA120E05B
:101790003FEF4FE757E40E94C50318164CF56FA1C1
:1017A00078A589A59AA520E030E040E251E40E94A6
:1017B0001F02DC01CB01BC01CD010E944900DC010C
:1017C000CB019AA389A30FC088EC90E098A38F8FD8
:1017D0008F8D98A10197F1F798A38F8F89A19AA176
:1017E00001979AA389A389A19AA1009769F714C0C8
:1017F0006BA17CA18DA19EA10E944900DC01CB01BF
:101800009AA389A389A19AA19E8F8D8F8D8D9E8D7C
:101810000197F1F79E8F8D8F8CE00E947D0A80E00A
:1018200090E0A0E8BFE3898F9A8FAB8FBC8F698D62
:101830007A8D8B8D9C8D20E030E04AEF54E40E943D
:101840001F02DC01CB018D8B9E8BAF8BB88F6D8916
:101850007E898F89988D20E030E040E85FE30E9428
:10186000250488232CF481E090E09C8B8B8B3FC077
:101870006D897E898F89988D20E03FEF4FE757E48F
:101880000E94C50318164CF5698D7A8D8B8D9C8D41
:1018900020E030E040E251E40E941F02DC01CB0175
:1018A000BC01CD010E944900DC01CB019C8B8B8BDC
:1018B0000FC088EC90E09A8B898B89899A8901976F
:1018C000F1F79A8B898B8B899C8901979C8B8B8BE9
:1018D0008B899C89009769F714C06D897E898F89EF
:1018E000988D0E944900DC01CB019C8B8B8B8B89EE
:1018F0009C89988B8F878F8598890197F1F7988BB2
:101900008F8781E00E947D0A80E090E0A0E0B0E453
:101910008B879C87AD87BE876B857C858D859E85F3
:1019200020E030E04AEF54E40E941F02DC01CB01CA
:101930008F839887A987BA876F81788589859A85EB
:1019400020E030E040E85FE30E94250488232CF487
:1019500081E090E09E838D833FC06F81788589858B
:101960009A8520E03FEF4FE757E40E94C503181621
:101970004CF56B857C858D859E8520E030E040E2CE
:1019800051E40E941F02DC01CB01BC01CD010E9489
:101990004900DC01CB019E838D830FC088EC90E071
:1019A0009C838B838B819C810197F1F79C838B8334
:1019B0008D819E8101979E838D838D819E8100976D
:1019C00069F714C06F81788589859A850E944900DE
:1019D000DC01CB019E838D838D819E819A838983D7
:1019E00089819A810197F1F79A838983E8960FB6E6
:1019F000F894DEBF0FBECDBFCF91DF910895DF9386
:101A0000CF9300D00F92CDB7DEB79B838A83198224
:101A10000EC08981282F30E08A819B81FC01E20F72
:101A2000F31F80810E94DF0989818F5F898389810B
:101A3000282F30E08A819B81FC01E20FF31F808117
:101A4000882339F70F900F900F90CF91DF91089571
:101A5000DF93CF9300D000D00F92CDB7DEB78A834B
:101A60006B838A81282F30E03D832C838C819D817C
:101A7000009731F02C813D812130310521F006C0E5
:101A80008B81898303C08B81805C898389818058A5
:101A90000E947D0A0F900F900F900F900F90CF91A2
:101AA000DF910895DF93CF93CDB7DEB781E00E9439
:101AB0007D0ACF91DF9108950F931F93DF93CF930A
:101AC000CDB7DEB7C856D0400FB6F894DEBF0FBE14
:101AD000CDBFFE01E959FF4F918380831A8284E6CE
:101AE000FE013396DF01982F1D929A95E9F729C0E0
:101AF0008A81082F10E0FE01E959FF4F8081918112
:101B00002AE030E0B9010E946218282FCE01039626
:101B1000FC01E00FF11F20838E0109591F4FFE01C8
:101B2000E959FF4F808191812AE030E0B9010E949C
:101B30006218CB01D80111969C938E938A818F5F96
:101B40008A83FE01E959FF4F80819181009781F6D8
:101B500019828A81898312C08981882F90E09C0133
:101B600021503040CE010396FC01E20FF31F80812B
:101B7000805D0E94DF098981815089838981882362
:101B800059F7C859DF4F0FB6F894DEBF0FBECDBF6F
:101B9000CF91DF911F910F910895DF93CF93CDB730
:101BA000DEB727970FB6F894DEBF0FBECDBF8B838D
:101BB0007D836C834E832F838B81882F90E0880FE9
:101BC000991F880F991F880F991F8A838A81805CCB
:101BD0000E947D0A19820EC08981282F30E08C81F5
:101BE0009D81FC01E20FF31F80810E94DF09898142
:101BF0008F5F89838981883078F38E816F810E941D
:101C0000280D8B810E94DF0927960FB6F894DEBF5E
:101C10000FBECDBFCF91DF910895DF93CF93CDB7A6
:101C2000DEB7A3E5B0E0E3E5F0E0808180648C936B
:101C3000A3E5B0E0E3E5F0E0808188608C93A3E564
:101C4000B0E0E3E5F0E080818E7F8C93A3E5B0E027
:101C5000E3E5F0E0808182608C93A3E5B0E0E3E50A
:101C6000F0E080818B7F8C93CF91DF910895DF939B
:101C7000CF930F92CDB7DEB78983E2E5F0E089819B
:101C800080830F90CF91DF910895DF93CF930F92D0
:101C9000CDB7DEB78983ECE5F0E0898180830F90D2
:101CA000CF91DF910895DF93CF9300D0CDB7DEB70A
:101CB0009A83898389819A81009731F089819A81F9
:101CC0009093EB008093EA000F900F90CF91DF91FB
:101CD0000895DF93CF9300D0CDB7DEB79A83898381
:101CE00089819A81009731F089819A819093ED00E2
:101CF0008093EC000F900F90CF91DF910895DF93C8
:101D0000CF9300D00F92CDB7DEB789838981282F7A
:101D100030E03B832A838A819B8181309105A1F049
:101D20002A813B8122303105E9F4A3E5B0E0E3E507
:101D3000F0E080818F7E8C93A3E5B0E0E3E5F0E0F6
:101D4000808180628C930EC0A3E5B0E0E3E5F0E013
:101D5000808180618C93A3E5B0E0E3E5F0E08081D1
:101D600080628C930F900F900F90CF91DF91089528
:101D70001F920F920FB60F9211242F933F934F9300
:101D80005F936F937F938F939F93AF93BF93EF93E3
:101D9000FF93DF93CF93CDB7DEB7E091EC00F091E6
:101DA000ED000995CF91DF91FF91EF91BF91AF9138
:101DB0009F918F917F916F915F914F913F912F9163
:101DC0000F900FBE0F901F9018951F920F920FB695
:101DD0000F9211242F933F934F935F936F937F93B1
:101DE0008F939F93AF93BF93EF93FF93DF93CF9323
:101DF000CDB7DEB7E091EA00F091EB000995CF9105
:101E0000DF91FF91EF91BF91AF919F918F917F9162
:101E10006F915F914F913F912F910F900FBE0F9057
:101E20001F901895DF93CF93CDB7DEB7AFE4B0E046
:101E3000EFE4F0E080818E7F8C93AFE4B0E0EFE4DC
:101E4000F0E0808182608C93AEE4B0E0EEE4F0E0FC
:101E5000808188608C93AEE4B0E0EEE4F0E08081B5
:101E600080618C93AFE4B0E0EFE4F0E080818F7BA1
:101E70008C93AFE4B0E0EFE4F0E0808180688C9375
:101E8000AEE4B0E0EEE4F0E080818E7F8C93AEE4CF
:101E9000B0E0EEE4F0E0808182608C93AEE4B0E0EC
:101EA000EEE4F0E080818B7F8C93CF91DF910895F9
:101EB000DF93CF93CDB7DEB7ECE4F0E01182108270
:101EC000AFE4B0E0EFE4F0E080818E7F8C93AFE48C
:101ED000B0E0EFE4F0E080818D7F8C93AEE4B0E081
:101EE000EEE4F0E08081877F8C93AEE4B0E0EEE436
:101EF000F0E080818F7E8C93AEE4B0E0EEE4F0E021
:101F0000808182608C93A9E5B0E0E9E5F0E0808112
:101F100080628C93AEE4B0E0EEE4F0E08081806417
:101F20008C93CF91DF910895DF93CF9300D0CDB7FD
:101F3000DEB79A838983E6E4F0E089819A81918310
:101F400080830F900F90CF91DF910895DF93CF930F
:101F500000D0CDB7DEB79A838983EAE4F0E08981C7
:101F60009A81918380830F900F90CF91DF91089594
:101F7000DF93CF93CDB7DEB7A5E4B0E0E5E4F0E0C2
:101F8000808180648C93A5E4B0E0E5E4F0E080819A
:101F900088608C93A5E4B0E0E5E4F0E080818E7F7A
:101FA0008C93A5E4B0E0E5E4F0E0808182608C935E
:101FB000A5E4B0E0E5E4F0E080818B7F8C93A5E4BC
:101FC000B0E0E5E4F0E080818F7E8C93A5E4B0E0A2
:101FD000E5E4F0E0808180628C93CF91DF910895F9
:101FE000DF93CF930F92CDB7DEB78983E3E4F0E0C0
:101FF000898180830F90CF91DF910895DF93CF93F4
:10200000CDB7DEB7AAE2B0E0EAE2F0E0808180611D
:102010008C93AAE2B0E0EAE2F0E0808188608C93E1
:10202000AAE2B0E0EAE2F0E080818B7F8C93E0E40A
:10203000F0E086E88083E9E2F0E083E38083CF91FB
:10204000DF910895DF93CF930F92CDB7DEB78983E9
:10205000EBE2F0E08081829586958770882F90E092
:10206000817090700097A1F3ECE2F0E089818083A9
:102070000F90CF91DF910895DF93CF93CDB7DEB767
:10208000EBE2F0E080818823DCF7ECE2F0E0808195
:10209000CF91DF910895DF93CF9300D00F92CDB70A
:1020A000DEB79A838983EBE2F0E0808188234CF4E9
:1020B000ECE2F0E08081E981FA81808381E08B832A
:1020C00001C01B828B810F900F900F90CF91DF91F9
:1020D0000895DF93CF9300D00F92CDB7DEB71B8268
:1020E0001A820E943C10898389818033C0F08981E3
:1020F0008A33A8F48A819B819C01220F331FC90176
:10210000880F991F880F991F280F391F8981882FE1
:1021100090E0820F931FC0979B838A83E2CF8A81CE
:102120009B810F900F900F90CF91DF910895DF93D7
:10213000CF930F92CDB7DEB7EBE2F0E0808188233A
:102140001CF481E0898301C0198289810F90CF91AD
:10215000DF910895DF93CF93CDB7DEB7A1E4B0E070
:10216000E1E4F0E0808188608C93E1E4F0E08EE0CF
:102170008083CF91DF910895DF93CF93CDB7DEB702
:10218000A1E4B0E0E1E4F0E0808188618C93E1E4D7
:10219000F0E01082CF91DF910895AF92BF92CF927D
:1021A000DF92EF92FF920F931F93DF93CF93CDB700
:1021B000DEB763970FB6F894DEBF0FBECDBF81E0E8
:1021C0006FEF0E944F0683E067E00E944F060E9477
:1021D0001B0B83E50E94FE1384E060E040E00E9458
:1021E000D30684E061E041E00E94D30682E063E030
:1021F00041E00E94D30684E067E041E00E94D306FC
:1022000082E064E041E00E94D30682E065E041E0C4
:102210000E94D30682E066E041E00E94D30682E09D
:1022200067E041E00E94D3060E94FE0F0E940D0E5F
:1022300082E00E947F0E0E94B80F0E94C3090E9494
:102240009C1483E5898B0E949710882309F456C05B
:102250000E943C10888B1092EF001092EE0088894B
:102260008B3419F08889803539F488898093E800A7
:1022700081E08093F000E7CF88898033A0F18889DE
:102280008A3388F5888980538F878F85882F90E0DF
:10229000A0E0B0E000D000D0EDB7FEB7319680836B
:1022A0009183A283B38360E070E080E090E029E056
:1022B00030E040E050E0EE24FF2487010F2EFFEFD6
:1022C000AF2EF0E0BF2EF0E0CF2EF0E0DF2EF02DAD
:1022D0000E9452090F900F900F900F90DC01CB01DC
:1022E0008093F60086C099898889981709F481C07F
:1022F0008889898B81E08093F0007BC080E090E04A
:10230000A0E8BFE38B879C87AD87BE876B857C8504
:102310008D859E8520E030E04AEF54E40E941F0244
:10232000DC01CB018F839887A987BA876F81788575
:1023300089859A8520E030E040E85FE30E9425042B
:1023400088232CF481E090E09E838D833FC06F81D1
:10235000788589859A8520E03FEF4FE757E40E9412
:10236000C50318164CF56B857C858D859E8520E010
:1023700030E040E251E40E941F02DC01CB01BC01CD
:10238000CD010E944900DC01CB019E838D830FC0EB
:1023900088EC90E09C838B838B819C810197F1F783
:1023A0009C838B838D819E8101979E838D838D81FC
:1023B0009E81009769F714C06F81788589859A8519
:1023C0000E944900DC01CB019E838D838D819E811B
:1023D0009A83898389819A810197F1F79A83898306
:1023E0008091EE009091EF0001969093EF00809322
:1023F000EE008091EE009091EF0021E08D32920787
:1024000040F08989833529F483E5898B81E08093C5
:10241000F0008091E8008B3409F0ECC08989282F06
:1024200030E03B8B2A8B8A899B898934910509F49A
:102430004DC02A893B892A343105F4F48A899B8965
:1024400086349105C1F12A893B89273431053CF452
:102450008A899B898234910509F468C0D1C02A8990
:102460003B892734310509F449C08A899B8988341E
:10247000910509F47EC0C4C02A893B892C343105FA
:1024800009F49AC08A899B898D3491053CF42A8984
:102490003B892A34310509F454C0B2C08A899B892A
:1024A0008235910509F47DC02A893B8923353105A0
:1024B00009F497C0A5C08091F6000E94450E809156
:1024C000F6000E94F00F0E940B139AC08091F60054
:1024D0000E94450E8091F600282F30E0C901880F38
:1024E000991F820F931F25E030E0B9010E947618F2
:1024F000CB010E94F00F0E94261382C08091F6004B
:10250000282F30E0C901880F991F820F931F25E003
:1025100030E0B9010E947618CB010E94450E8091EF
:10252000F6000E94F00F0E9441136AC08091F600ED
:102530000E94450E8091F6000E94F00F0E945C13ED
:102540005FC08091F6000E94450E8091F600282F12
:1025500030E0C901880F991F820F931F25E030E0FA
:10256000B9010E947618CB010E94F00F0E947713E8
:1025700047C08091F600282F30E0C901880F991FCD
:10258000820F931F25E030E0B9010E947618CB013D
:102590000E94450E8091F6000E94F00F0E94921357
:1025A0002FC08091F6000E94450E8091F6000E9497
:1025B000F00F0E94AD1324C08091F600882F90E0A8
:1025C000880F991F25E030E0B9010E947618CB01F1
:1025D0000E94450E8091F6000E94F00F0E94C813E1
:1025E0000FC080E00E94450E80E00E94F00F0E9424
:1025F000E31306C08091E800803511F40E9478163C
:102600008091F000882309F41ECE89890E94FE1370
:102610001092F00018CEDF93CF93CDB7DEB782E0F3
:1026200064E040E00E94D50782E065E041E00E945E
:10263000D50782E066E040E00E94D50782E067E0CF
:1026400041E00E94D507CF91DF910895DF93CF93AA
:10265000CDB7DEB782E064E040E00E94D50782E0BB
:1026600065E041E00E94D50782E066E040E00E941C
:10267000D50782E067E041E00E94D507CF91DF9166
:102680000895DF93CF93CDB7DEB782E064E040E0FA
:102690000E94D50782E065E041E00E94D50782E014
:1026A00066E040E00E94D50782E067E041E00E94DA
:1026B000D507CF91DF910895DF93CF93CDB7DEB7E4
:1026C00082E064E041E00E94D50782E065E040E0FE
:1026D0000E94D50782E066E041E00E94D50782E0D3
:1026E00067E040E00E94D507CF91DF910895DF9326
:1026F000CF93CDB7DEB782E064E041E00E94D5071A
:1027000082E065E040E00E94D50782E066E041E0BB
:102710000E94D50782E067E040E00E94D507CF9194
:10272000DF910895DF93CF93CDB7DEB782E064E009
:1027300041E00E94D50782E065E040E00E94D507B5
:1027400082E066E041E00E94D50782E067E040E079
:102750000E94D507CF91DF910895DF93CF93CDB736
:10276000DEB782E064E040E00E94D50782E065E0E9
:1027700041E00E94D50782E066E040E00E94D50774
:1027800082E067E040E00E94D507CF91DF91089595
:10279000DF93CF93CDB7DEB782E064E040E00E94E4
:1027A000D50782E065E040E00E94D50782E066E060
:1027B00040E00E94D50782E067E041E00E94D50733
:1027C000CF91DF910895DF93CF93CDB7DEB782E04D
:1027D00064E040E00E94D50782E065E040E00E94AE
:1027E000D50782E066E040E00E94D50782E067E01E
:1027F00040E00E94D507CF91DF910895DF93CF93FA
:1028000000D00F92CDB7DEB789830E94520D80E0D1
:1028100060E00E94280D8091E8008B3429F480E666
:1028200090E00E94FF0C04C089E690E00E94FF0C3B
:1028300081E060E00E94280D8091E800803529F455
:1028400084E790E00E94FF0C71C08981833529F4F0
:1028500081E890E00E94FF0C69C08AE890E00E9445
:10286000FF0C81E060E00E94280D8981282F30E074
:102870003B832A838A819B818834910509F44DC06A
:102880002A813B812934310584F48A819B818634F5
:10289000910501F12A813B8127343105A4F58A8114
:1028A0009B8182349105D9F03DC02A813B812A3435
:1028B000310571F18A819B818A349105FCF02A816E
:1028C0003B812C34310581F08A819B8182359105D1
:1028D00081F028C083E990E00E94FF0C27C08BE9BB
:1028E00090E00E94FF0C22C080EA90E00E94FF0C62
:1028F0001DC085EA90E00E94FF0C18C08BEA90E0B2
:102900000E94FF0C13C088EB90E00E94FF0C0EC0E9
:1029100084EC90E00E94FF0C09C08EEC90E00E94D5
:10292000FF0C04C087ED90E00E94FF0C0F900F9009
:102930000F90CF91DF910895DF93CF93CDB7DEB79E
:1029400084E065E041E00E94D30684E066E040E078
:102950000E94D3060E94580FCF91DF910895DF9314
:10296000CF93CDB7DEB7E4970FB6F894DEBF0FBEB6
:10297000CDBF1FA618AA19AA1AAA1EA61DA690C1E5
:102980001092F500ECE4F0E011821082A8E5B0E0CE
:10299000E8E5F0E080819181806211969C938E93AE
:1029A000AEE4B0E0EEE4F0E0808180648C9384E0FB
:1029B00065E041E00E94D50780E090E0A0E2B1E44C
:1029C0008BA39CA3ADA3BEA36BA17CA18DA19EA153
:1029D0002BEA3AEA4AE250E40E941F02DC01CB01F2
:1029E0008F8F98A3A9A3BAA36F8D78A189A19AA16B
:1029F00020E030E040E85FE30E94250488231CF4D7
:102A000081E08E8F91C06F8D78A189A19AA120E07D
:102A100030E04FE753E40E94C50318160CF07BC06A
:102A20006BA17CA18DA19EA120E030E04AE754E497
:102A30000E941903DC01CB018A8F9B8FAC8FBD8F65
:102A40006A8D7B8D8C8D9D8D20E030E04AEF54E4C3
:102A50000E941F02DC01CB018E8B9F8BA88FB98F48
:102A60006E897F89888D998D20E030E040E85FE3B2
:102A70000E94250488232CF481E090E09D8B8C8BB0
:102A80003FC06E897F89888D998D20E03FEF4FE7A9
:102A900057E40E94C50318164CF56A8D7B8D8C8D0A
:102AA0009D8D20E030E040E251E40E941F02DC01F5
:102AB000CB01BC01CD010E944900DC01CB019D8B03
:102AC0008C8B0FC088EC90E09B8B8A8B8A899B89CA
:102AD0000197F1F79B8B8A8B8C899D8901979D8B40
:102AE0008C8B8C899D89009769F724C06E897F89BA
:102AF000888D998D0E944900DC01CB019D8B8C8BC8
:102B00008C899D89998B888B888999890197F1F7A0
:102B1000998B888B0FC06F8D78A189A19AA10E9493
:102B20004900DC01CB018E8F8E8D8F878F858A9532
:102B3000F1F78F8784E065E040E00E94D50719A691
:102B40001AA61BA61CA68091F500823040F4ECE486
:102B5000F0E0808191812CE980349207A0F380918C
:102B6000F500823041F52091F3003091F40080911E
:102B7000F1009091F200A901481B590BCA0198A7D6
:102B80008FA38FA198A52AE330E0B9010E946218B3
:102B9000CB019C0140E050E08FA598A9A9A9BAA952
:102BA000820F931FA41FB51F8FA798ABA9ABBAAB19
:102BB0008EA58F5F8EA780E090E0A0E7B1E48B87C1
:102BC0009C87AD87BE876B857C858D859E8520E043
:102BD00030E04AEF54E40E941F02DC01CB018F83F6
:102BE0009887A987BA876F81788589859A8520E03B
:102BF00030E040E85FE30E94250488232CF481E064
:102C000090E09E838D833FC06F81788589859A850A
:102C100020E03FEF4FE757E40E94C50318164CF53C
:102C20006B857C858D859E8520E030E040E251E417
:102C30000E941F02DC01CB01BC01CD010E944900B2
:102C4000DC01CB019E838D830FC088EC90E09C83D8
:102C50008B838B819C810197F1F79C838B838D8182
:102C60009E8101979E838D838D819E81009769F758
:102C700014C06F81788589859A850E944900DC019E
:102C8000CB019E838D838D819E819A8389838981E7
:102C90009A810197F1F79A8389838DA58F5F8DA71C
:102CA0008DA5833008F46CCE8EA5882391F08EA577
:102CB000282F30E040E050E08FA598A9A9A9BAA933
:102CC000BC01CD010E948918DA01C9019CAB8BAB14
:102CD00004C087EE93E09CAB8BAB8BA99CA9E496D8
:102CE0000FB6F894DEBF0FBECDBFCF91DF91089530
:102CF000DF93CF93CDB7DEB7AC970FB6F894DEBFB6
:102D00000FBECDBF0E94AF149CA78BA78BA59CA51F
:102D10008431910508F05DC10E94E31380E090E0EA
:102D2000A8E4B3E48FA398A7A9A7BAA76FA178A531
:102D300089A59AA520E030E04AEF54E40E941F02E2
:102D4000DC01CB018BA39CA3ADA3BEA36BA17CA193
:102D50008DA19EA120E030E040E85FE30E942504C1
:102D600088232CF481E090E09AA389A33FC06BA153
:102D70007CA18DA19EA120E03FEF4FE757E40E9488
:102D8000C50318164CF56FA178A589A59AA520E072
:102D900030E040E251E40E941F02DC01CB01BC01A3
:102DA000CD010E944900DC01CB019AA389A30FC089
:102DB00088EC90E098A38F8F8F8D98A10197F1F701
:102DC00098A38F8F89A19AA101979AA389A389A11A
:102DD0009AA1009769F714C06BA17CA18DA19EA157
:102DE0000E944900DC01CB019AA389A389A19AA181
:102DF0009E8F8D8F8D8D9E8D0197F1F79E8F8D8F7C
:102E00000E94AD1380E090E0A6E9B3E4898F9A8F29
:102E1000AB8FBC8F698D7A8D8B8D9C8D20E030E0DF
:102E20004AEF54E40E941F02DC01CB018D8B9E8B84
:102E3000AF8BB88F6D897E898F89988D20E030E0C7
:102E400040E85FE30E94250488232CF481E090E0B1
:102E50009C8B8B8B3FC06D897E898F89988D20E0FC
:102E60003FEF4FE757E40E94C50318164CF5698DF4
:102E70007A8D8B8D9C8D20E030E040E251E40E9401
:102E80001F02DC01CB01BC01CD010E944900DC0125
:102E9000CB019C8B8B8B0FC088EC90E09A8B898B3D
:102EA00089899A890197F1F79A8B898B8B899C89FB
:102EB00001979C8B8B8B8B899C89009769F714C039
:102EC0006D897E898F89988D0E944900DC01CB0134
:102ED0009C8B8B8B8B899C89988B8F878F8598890E
:102EE0000197F1F7988B8F870E94E31380E090E0C1
:102EF000A8E4B3E48B879C87AD87BE876B857C8510
:102F00008D859E8520E030E04AEF54E40E941F0248
:102F1000DC01CB018F839887A987BA876F81788579
:102F200089859A8520E030E040E85FE30E9425042F
:102F300088232CF481E090E09E838D833FC06F81D5
:102F4000788589859A8520E03FEF4FE757E40E9416
:102F5000C50318164CF56B857C858D859E8520E014
:102F600030E040E251E40E941F02DC01CB01BC01D1
:102F7000CD010E944900DC01CB019E838D830FC0EF
:102F800088EC90E09C838B838B819C810197F1F787
:102F90009C838B838D819E8101979E838D838D8100
:102FA0009E81009769F71DC06F81788589859A8514
:102FB0000E944900DC01CB019E838D838D819E811F
:102FC0009A83898389819A810197F1F79A8389830A
:102FD00008C088EC0E94450E88EC0E94F00F0E9409
:102FE0000B13AC960FB6F894DEBF0FBECDBFCF91DA
:102FF000DF9108951F920F920FB60F9211248F93B5
:103000009F93AF93BF93EF93FF93DF93CF93CDB78E
:10301000DEB78091F500882399F4E6E4F0E0808142
:1030200091819093F2008093F100AEE4B0E0EEE481
:10303000F0E080818F7B8C9381E08093F50016C057
:103040008091F500813091F4E6E4F0E08081918197
:103050009093F4008093F300AEE4B0E0EEE4F0E08F
:10306000808180648C9382E08093F500CF91DF9122
:10307000FF91EF91BF91AF919F918F910F900FBEF4
:103080000F901F901895629FD001739FF001829F4F
:10309000E00DF11D649FE00DF11D929FF00D839FE7
:1030A000F00D749FF00D659FF00D9927729FB00D84
:1030B000E11DF91F639FB00DE11DF91FBD01CF0197
:1030C00011240895AA1BBB1B51E107C0AA1FBB1FF7
:1030D000A617B70710F0A61BB70B881F991F5A95A4
:1030E000A9F780959095BC01CD01089597FB092E15
:1030F00007260AD077FD04D0E5DF06D000201AF4B9
:10310000709561957F4F0895F6F7909581959F4F43
:103110000895A1E21A2EAA1BBB1BFD010DC0AA1F18
:10312000BB1FEE1FFF1FA217B307E407F50720F030
:10313000A21BB30BE40BF50B661F771F881F991FAB
:103140001A9469F760957095809590959B01AC01F4
:10315000BD01CF0108952F923F924F925F926F92DF
:103160007F928F929F92AF92BF92CF92DF92EF9217
:10317000FF920F931F93CF93DF93CDB7DEB7CA1B98
:10318000DB0B0FB6F894DEBF0FBECDBF09942A88C3
:10319000398848885F846E847D848C849B84AA846B
:1031A000B984C884DF80EE80FD800C811B81AA81F8
:1031B000B981CE0FD11D0FB6F894DEBF0FBECDBFC3
:0831C000ED010895F894FFCF22
:1031C8004D6F64653A205243004D6F64653A204163
:1031D80055544F004175746F2044726976696E6763
:1031E800004361722053746F7000436172204D6F09
:1031F800766500466F7277617264004261636B00A6
:103208004C65667400526967687400466F7277612E
:103218007264526967687400466F72776172644CB1
:10322800656674004261636B526967687400426145
:10323800636B4C65667400556E6B6E6F776E00003D
:0A32480000000000000000584B00D9
:00000001FF
